:020000041000EA
:101000005009002019100010C1100010C31000106A
:1010100000040000000000000248854602488047A6
:1010200004E0000050090020BD10001016481749C8
:10103000174A002A07D0920803680B60013A02D0D1
:1010400004300431F8E713481349002906D0890811
:1010500000220260013901D00430FAE70F4810493C
:10106000104A920803680B60013A02D00430043140
:10107000F8E70D4885460D4880470D488047002019
:1010800000210C4A97460000883D001060090020AE
:10109000300000005009002010000000503C0010FB
:1010A0000C0000203801000050090020051100103C
:1010B000B91000106D110010C0467047C04670474F
:1010C000FEE7FEE7FEE7FEE7FEE7FEE7FEE7FEE7F8
:1010D000FEE7FEE7FEE7FEE7FEE7FEE7FEE7FEE7E8
:1010E000FEE7FEE7FEE7FEE7FEE7FEE7FEE7FEE7D8
:1010F000FEE7FEE7FEE7FEE7FEE7FEE7FEE7FEE7C8
:10110000FEE7FEE780B500AF00F002F8BD4680BD07
:1011100080B582B000AF114B1A68FF231B02134049
:101120001B0A7B600D4B1A68FF2313403B607B68F2
:10113000002B0CD07B681A023B68D3180848191C96
:1011400001F01EFD031C5A00064B1A6002E0054B1D
:10115000054A1A60BD4602B080BDC046000301408A
:10116000000024F45C0900200048E80180B500AFCD
:1011700001F0D6FA034A044B101C191C002201F09E
:101180003BF8F7E7A03B00106009002080B584B071
:1011900000AFF860B9607A6001235B42181CBD465D
:1011A00004B080BD80B584B000AFF860B9607A60EB
:1011B00001235B42181CBD4604B080BD80B584B0DD
:1011C00000AFF860B9607A600023181CBD4604B017
:1011D00080BDC04680B584B000AFF860B9607A6069
:1011E00001235B42181CBD4604B080BD80B500AF32
:1011F00001235B42181CBD4680BDC04680B582B04D
:1012000000AF786039603B68002B02D001235B425D
:1012100001E002235B42181CBD4602B080BDC046FF
:1012200080B582B000AF786039607A683B689A42D6
:1012300002D101235B4201E002235B42181CBD4640
:1012400002B080BD80B582B000AF786001235B4200
:10125000181CBD4602B080BD80B586B000AF786076
:10126000144B7B61144B1B68002B08D1124B134AA3
:101270001A60114B1A687B69D218114B1A600E4B19
:101280001B683B610C4B1B681A1C7B68D318073327
:1012900007229343FB600A4B1B68FA689A4201D30A
:1012A000002303E0044BFA681A603B69181CBD4632
:1012B00006B080BD7036000054090020900900205F
:1012C0005809002080B582B000AF786001235B42EE
:1012D000181CBD4602B080BD80B582B000AF7860FA
:1012E00001235B42181CBD4602B080BD80B582B0B0
:1012F00000AF7860396001235B42181CBD4602B024
:1013000080BDC04680B500AF01235B42181CBD46BE
:1013100080BDC04680B500AF01235B42181CBD46AE
:1013200080BDC04680B582B000AF7860FEE7C046A1
:1013300080B500AFBD4680BD80B582B000AF78609B
:1013400001235B42181CBD4602B080BD90B587B03A
:1013500000AF786039607B681B687B617B68DB6904
:101360009B683B617B68DB69DB68FB607B68DA69F3
:101370003B1C0B3312791A707B68DA693B1C0A3309
:1013800052791A707B691B6C0122181C9043021C55
:101390007B691A647B69DB6803221A437B69DA6024
:1013A0007B691B69802212021A437B691A617B697F
:1013B0001A693B681B889B059B0D1A437B691A6160
:1013C0007B695A697B689B681B7A9902F823DB0169
:1013D00019403B6802331B8818049D4B0340194396
:1013E0007B689B689B78181C7B689B68DB785B003C
:1013F00003439B070B43134380221A437B695A61C3
:101400007B695A6B7B689B685B78191C01231940C8
:101410007B689B68DB7A013B1804FC239B03034039
:1014200019437B689B689B7A013B1806F0231B05D8
:1014300003400B431343812252001A437B695A63D2
:101440007B689B681B78012B0FD002DC002B05D03A
:101450009DE0022B29D0032B5AD098E07B69DB69F1
:1014600010221A437B69DA6191E07B691B6C402290
:101470001A437B691A647B699B6B10221A437B6950
:101480009A637B69DB6916221A437B69DA613B69DF
:101490005A6F3B1C0B331B785B0002210C1C9C40D9
:1014A000231C1A433B695A6771E07B691B6C8022DD
:1014B0001A437B691A647B699B6B10221A437B6910
:1014C0009A637B69DB6916221A437B69DA617B695F
:1014D0009B6A16221A437B699A623B695A6F3B1CCE
:1014E0000B331B785B000221081C9840031C1A4335
:1014F0003B695A67FB685A6F3B1C0A331B785B00D9
:1015000002210C1C9C40231C1A43FB685A673EE0D6
:101510007B691B6CC0221A437B691A647B699B6BD5
:1015200010221A437B699A637B69DB6916221A438E
:101530007B69DA617B699B6A16221A437B699A622E
:101540007B69DB6A16221A437B69DA627B691B6B53
:1015500016221A437B691A633B695A6F3B1C0B3393
:101560001B785B000221081C9840031C1A433B694E
:101570005A67FB685A6F3B1C0A331B785B000221D9
:101580000C1C9C40231C1A43FB685A67C0467B69AD
:101590009B6BA022D2001A437B699A637B69DA6B4A
:1015A0007B689B685B7A1902F8235B0119407B68B2
:1015B0005B7E98038023DB01034019437B689B68B3
:1015C0001B7B181C7C6808232018C3181B7901207A
:1015D000041C9C40231C1804FF231B0403401943D4
:1015E0007B681B79D800082303400B431343272251
:1015F0001A437B69DA637A6984235B00D2587B687B
:101600005B7D1902FC239B010B40111C19437A6975
:1016100084235B00D1507A6986235B00D2587B68B3
:101620009B7D1902FC239B010B4013438022520532
:10163000111C19437A6986235B00D1507B691B6CAE
:1016400001221A437B691A64BD4607B090BDC046AB
:101650000000FF0390B589B000AFF860B9607A6010
:10166000F86802F021FA031C7B613148796901F0C6
:10167000FFFC031C3B613869FE21890501F0ECFA8F
:10168000031C002B02D00023FB610FE03869FE2110
:10169000890502F00FF8031CFB61F869254901F088
:1016A000E5FA031C002B01D0224BFB61F86901F025
:1016B000F1FA021CBB681A6078698921C90501F03A
:1016C000C9FE031C181C1C4901F0D2FC031C181C89
:1016D000191C01F0F7FA031C1C1CBB681B68181CC2
:1016E00002F0E2F9031C181CFE21890501F0EAFA58
:1016F000031C201C191C01F0ADFE031C181C8421C6
:10170000C90501F0B5FC031CBB61B869094901F0CA
:10171000ADFA031C002B01D0064BBB61B86901F088
:10172000B9FA021C7B681A60BD4609B090BDC0467C
:10173000286BEE4A00C07F440024744980B586B00F
:1017400000AF78607B68DA693B1C173312791A7036
:101750007B68DB699B683B613B1C0F3307221A7077
:101760003B1C17331B78032B11D83B691B693A1CB0
:101770000F3211783A1C17321278D2000332081C4B
:101780009040021CD2431A403B691A6167E03B1C3F
:1017900017331B78032B1DD93B1C17331B78072BE2
:1017A00018D83B1C17333A1C17321278043A1A70B7
:1017B0003B695B693A1C0F3211783A1C1732127878
:1017C000D2000332081C9040021CD2431A403B69ED
:1017D0005A6144E03B1C17331B78072B1DD93B1C77
:1017E00017331B780B2B18D83B1C17333A1C1732B6
:1017F0001278083A1A703B699B693A1C0F321178CB
:101800003A1C17321278D2000332081C9040021C96
:10181000D2431A403B699A6121E03B1C17331B7885
:101820000B2B1CD93B1C17331B780F2B17D83B1CD9
:1018300017333A1C173212780C3A1A703B69DB697D
:101840003A1C0F3211783A1C17321278D200033248
:10185000081C9040021CD2431A403B69DA61BD4625
:1018600006B080BD80B586B000AF78607B68DA696D
:101870003B1C173392791A707B68DB691B693B61EB
:101880003B1C0F3318221A703B1C17331B78032B99
:1018900011D83B691B693A1C0F3211783A1C173278
:1018A0001278D2000332081C9040021CD2431A4026
:1018B0003B691A6167E03B1C17331B78032B1DD96A
:1018C0003B1C17331B78072B18D83B1C17333A1CCB
:1018D00017321278043A1A703B695B693A1C0F326E
:1018E00011783A1C17321278D2000332081C90404B
:1018F000021CD2431A403B695A6144E03B1C173337
:101900001B78072B1DD93B1C17331B780B2B18D8C2
:101910003B1C17333A1C17321278083A1A703B698D
:101920009B693A1C0F3211783A1C17321278D20098
:101930000332081C9040021CD2431A403B699A6152
:1019400021E03B1C17331B780B2B1CD93B1C173396
:101950001B780F2B17D83B1C17333A1C1732127801
:101960000C3A1A703B69DB693A1C0F3211783A1C49
:1019700017321278D2000332081C9040021CD24366
:101980001A403B69DA61BD4606B080BD80B586B0BD
:1019900000AF78607B68DA693B1C1733D2791A7024
:1019A0007B68DB695B693B613B1C0F3318221A7053
:1019B0003B1C17331B78032B11D83B691B693A1C5E
:1019C0000F3211783A1C17321278D2000332081CF9
:1019D0009040021CD2431A403B691A6167E03B1CED
:1019E00017331B78032B1DD93B1C17331B78072B90
:1019F00018D83B1C17333A1C17321278043A1A7065
:101A00003B695B693A1C0F3211783A1C1732127825
:101A1000D2000332081C9040021CD2431A403B699A
:101A20005A6144E03B1C17331B78072B1DD93B1C24
:101A300017331B780B2B18D83B1C17333A1C173263
:101A40001278083A1A703B699B693A1C0F32117878
:101A50003A1C17321278D2000332081C9040021C44
:101A6000D2431A403B699A6121E03B1C17331B7833
:101A70000B2B1CD93B1C17331B780F2B17D83B1C87
:101A800017333A1C173212780C3A1A703B69DB692B
:101A90003A1C0F3211783A1C17321278D2000332F6
:101AA000081C9040021CD2431A403B69DA61BD46D3
:101AB00006B080BD80B588B000AF78607B681B68D9
:101AC000FB617B68DB699B68BB617B68DB69DB680A
:101AD0007B617B68DA693B1C1333127E1A707B686A
:101AE000DA693B1C1233527E1A707B68DA693B1C40
:101AF000113312791A707B68DA693B1C1033527902
:101B00001A707B68DA693B1C0F3392791A707B6814
:101B1000DA693B1C0E3392781A703B1C0D3300229D
:101B20001A703B1C0C3303221A703B1C0D333A1CF9
:101B3000113212781A703B1C0F331B78002B04D122
:101B40003B1C0E331B78002B07D07B68181CFFF75B
:101B500089FE7B68181CFFF719FFBB695B6F3A1C95
:101B60000C3211783A1C113212785200081C904045
:101B7000021CD2431A40BB695A677B695B6F3A1CEF
:101B80000C3211783A1C103212785200081C904026
:101B9000021CD2431A407B695A673B1C13331A78E4
:101BA00007231A40FB69DB6907218B431A43FB6952
:101BB000DA613B1C0D331B78032B10D8BB691A6903
:101BC0003B1C123319783B1C0D331B78DB000333AD
:101BD000081C9840031C1A43BB691A6164E03B1C53
:101BE0000D331B78032B1CD93B1C0D331B78072BA3
:101BF00017D83B1C0D333A1C0D321278043A1A7078
:101C0000BB695A693B1C123319783B1C0D331B7896
:101C1000DB000333081C9840031C1A43BB695A615C
:101C200042E03B1C0D331B78072B1CD93B1C0D33AA
:101C30001B780B2B17D83B1C0D333A1C0D32127836
:101C4000083A1A70BB699A693B1C123319783B1C1D
:101C50000D331B78DB000333081C9840031C1A4328
:101C6000BB699A6120E03B1C0D331B780B2B1BD901
:101C70003B1C0D331B780F2B16D83B1C0D333A1C25
:101C80000D3212780C3A1A70BB69DA693B1C1233B8
:101C900019783B1C0D331B78DB000333081C98407C
:101CA000031C1A43BB69DA61BD4608B080BDC0465B
:101CB00080B500AF124BC0225A62124B114A126813
:101CC00011490A431A600F4B0E4A126908210A4350
:101CD0001A61C0460B4B1A688023DB051340F9D10B
:101CE000074BC3225A62094A094B101C191CFFF703
:101CF0002DFB084B074AD269DA61BD4680BDC0465C
:101D000000000140000301400000F03FA03B001034
:101D10009C3B00100000044080B582B000AF7860AA
:101D2000BD4602B080BDC04690B58BB000AF7860B4
:101D3000396000233B610023FB607B681B683B62CA
:101D40007B68DB699B68FB617B68DB69DB68BB6187
:101D50007B68DA693B1C173312791A707B68DA6981
:101D60003B1C163352791A7004237B623B681B7844
:101D7000032B1FD83B685B78012B1BD83B689B78F3
:101D8000012B17D83B68DB78012B13D83B681B7AF3
:101D9000022B0FD83B685B7A022B0BD83B689B7AEF
:101DA000102B07D83B68DB7A402B03D87B681B7D60
:101DB000072B02D903237B62E7E13B6A1B6C0122FC
:101DC000181C9043021C3B6A1A643B6859683A1C11
:101DD00010323B1C0C33081C111C1A1CFFF73AFC78
:101DE0003B6A1A69FB689B059B0D1A433B6A1A61A3
:101DF0003B681B7A9A02F823DB011A403B691904FD
:101E0000E44B0B401A433B689B78191C3B68DB781A
:101E10005B000B439B07134380221A433B6A5A61C2
:101E20003B6A5A6BDC4B1A403B6A5A633B6A5A6BFB
:101E30003B685B78191C012319403B68DB7A013B46
:101E40001804FC239B03034019433B689B7A013B26
:101E50001806F0231B0503400B431A433B6A5A63E1
:101E60003B681B78012B37D002DC002B07D061E1E7
:101E7000022B00D184E0032B00D1E8E05AE13B6A59
:101E80001B6CC022191C91430A1C3B6A1A643B6AF2
:101E90009B6B10221C1C9443221C3B6A9A633B6A76
:101EA0009B6A1722181C9043021C3B6A9A623B6A89
:101EB000DB6A1722191C91430A1C3B6ADA623B6AEF
:101EC0001B6B17221C1C9443221C3B6A1A637B6801
:101ED000181CFFF7EFFD2EE13B6A1B6CC022181C9B
:101EE0009043021C3B6A1A643B6A1B6C40221A43F3
:101EF0003B6A1A643B6A9B6B1022191C91430A1CB3
:101F00003B6A9A633B6A9B6B10221A433B6A9A6353
:101F10003B6ADB6917221C1C9443221C3B6ADA6172
:101F20003B6A9B6A1722181C9043021C3B6A9A6208
:101F30003B6ADB6A1722191C91430A1C3B6ADA626E
:101F40003B6A1B6B17221C1C9443221C3B6A1A63BE
:101F50007B68181CFFF7F2FBFB695A6F3B1C1733B9
:101F60001B785B000221081C9840031C1A43FB6984
:101F70005A673B6ADB6916221A433B6ADA61DAE088
:101F80003B6A1B6CC022191C91430A1C3B6A1A64F1
:101F90003B6A1B6C80221A433B6A1A643B6A9B6B48
:101FA00010221C1C9443221C3B6A9A633B6A9B6B65
:101FB00010221A433B6A9A633B6ADB691722181C9A
:101FC0009043021C3B6ADA613B6A9B6A1722191C28
:101FD00091430A1C3B6A9A623B6ADB6A17221C1C0B
:101FE0009443221C3B6ADA623B6A1B6B1722181C63
:101FF0009043021C3B6A1A637B68181CFFF79EFB28
:10200000FB695A6F3B1C17331B785B0002210C1CC9
:102010009C40231C1A43FB695A67BB695A6F3B1CDF
:1020200016331B785B000221081C9840031C1A43DE
:10203000BB695A673B6ADB6916221A433B6ADA615D
:102040003B6A9B6A16221A433B6A9A6273E03B6AB8
:102050001B6CC022191C91430A1C3B6A1A643B6A20
:102060001B6CC0221A433B6A1A643B6A9B6B1022AA
:102070001C1C9443221C3B6A9A633B6A9B6B102294
:102080001A433B6A9A633B6ADB691722181C904328
:10209000021C3B6ADA613B6A9B6A1722191C914356
:1020A0000A1C3B6A9A623B6ADB6A17221C1C944337
:1020B000221C3B6ADA623B6A1B6B1722181C904396
:1020C000021C3B6A1A637B68181CFFF737FBFB692D
:1020D0005A6F3B1C17331B785B0002210C1C9C4081
:1020E000231C1A43FB695A67BB695A6F3B1C1633A2
:1020F0001B785B000221081C9840031C1A43BB6933
:102100005A673B6ADB6916221A433B6ADA613B6A0B
:102110009B6A16221A433B6A9A623B6ADB6A162262
:102120001A433B6ADA623B6A1B6B16221A433B6A0C
:102130001A6300E0C0463B6ADA6B184B1A403B6AF0
:10214000DA633B6ADA6B3B685B7A1902F8235B015E
:1021500019403B681B7B181C7C6808232018C31897
:102160001B790120041C9C40231C1804FF231B0422
:1021700003400B431A433B6ADA633B6A1B6C012240
:102180001A433B6A1A6400237B627B6A181CBD46B3
:102190000BB090BD0000FF03E2FFC0F0FFE000FFC6
:1021A00080B584B000AF786039603B1C0F330022EB
:1021B0001A707B681B68BB60BA688A235B00D258C0
:1021C00008231340DB0804D03B1C0F3300221A7095
:1021D0000AE0BA688E235B00D3589AB23B681A8033
:1021E0003B1C0F3301221A703B1C0F331B78181C49
:1021F000BD4604B080BDC04680B588B000AFF86071
:10220000B960FB1D1A703B1C1F3300221A7000239B
:10221000BB613B1C173300221A70FB681B683B61D3
:10222000FB1D1A7818231340DB08BB613A698A2327
:102230005B00D25880235B0113401B0B04D03B1C76
:102240001F3300221A7025E03B691B6CC022191C49
:1022500091430A1C3B691A643B691A6CBB6999017A
:10226000FF230B401A433B691A643B1C1733FA1DCA
:10227000117807220A401A703B1C17331A78BB6882
:102280001B88191C3B6960329200D1503B1C1F33E4
:1022900001221A703B1C1F331B78181CBD4608B066
:1022A00080BDC04680B586B000AF78600A1CFB1CBC
:1022B0001A7001237B6100233B617B681B68FB6014
:1022C000FB1C1B785B09DBB2012B0CD1FB689B6C00
:1022D0003B61FB1C1A781F23134001229A403B6983
:1022E00013403B6113E0FB1C1B785B09DBB2022B44
:1022F0000DD1FA688A235B00D3583B61FB1C1A7826
:102300001F23134001229A403B6913403B613B6904
:10231000002B01D002237B617B69181CBD4606B0EF
:1023200080BDC04680B584B000AF78600A1CFB1C3D
:102330001A707B681B68FB60FB1C1B785B09DBB2B7
:10234000012B0DD1FB68DA6CFB1C19781F230B40A5
:102350000121081C9840031C1A43FB68DA6417E04B
:10236000FB1C1B785B09DBB2022B11D1FA688C23B2
:102370005B00D258FB1C19781F230B400121081C5D
:102380009840031C111C1943FA688C235B00D15040
:10239000BD4604B080BDC04680B500AF054B5B684C
:1023A00000225A60034B5B68024A526852695A61C4
:1023B000BD4680BDC03B001090B585B000AF7860D1
:1023C0000A1CFB1C1A703B1C0F337A6852781A7077
:1023D0003B1C0F331B78032B24D87B685B687A681F
:1023E00052681269391C0F310978C90003311F2066
:1023F000041C8C40211CC9430A401A617B685B683D
:102400007A6852681169FA1C10781F2210403A1C31
:102410000F321278D2000332041C9440221C0A436B
:102420001A61A0E03B1C0F331B78032B30D93B1CF7
:102430000F331B78072B2BD83B1C0F333A1C0F3262
:102440001278043A1A707B685B687A68526852693D
:10245000391C0F310978C90003311F20041C8C403E
:10246000211CC9430A405A617B685B687A685268DC
:102470005169FA1C10781F2210403A1C0F32127852
:10248000D2000332041C9440221C0A435A616AE0C1
:102490003B1C0F331B78072B30D93B1C0F331B78A9
:1024A0000B2B2BD83B1C0F333A1C0F321278083AF7
:1024B0001A707B685B687A6852689269391C0F31C0
:1024C0000978C90003311F20041C8C40211CC9431A
:1024D0000A409A617B685B687A6852689169FA1C65
:1024E00010781F2210403A1C0F321278D2000332AB
:1024F000041C9440221C0A439A6134E03B1C0F33B5
:102500001B780B2B2FD93B1C0F331B780F2B2AD892
:102510003B1C0F333A1C0F3212780C3A1A707B684E
:102520005B687A685268D269391C0F310978C90032
:1025300003311F20041C8C40211CC9430A40DA616E
:102540007B685B687A685268D169FA1C10781F2230
:1025500010403A1C0F321278D2000332041C94400F
:10256000221C0A43DA61BD4605B090BD90B585B026
:1025700000AF78600A1CFB1C1A703B1C0F337A6892
:1025800052781A703B1C0F331B78032B24D87B68BE
:102590005B687A6852681269391C0F310978C90082
:1025A00003311F20041C8C40211CC9430A401A61BE
:1025B0007B685B687A6852681169FA1C10781F2280
:1025C00010403A1C0F321278D2000332041C94409F
:1025D000221C0A431A61A0E03B1C0F331B78032B1B
:1025E00030D93B1C0F331B78072B2BD83B1C0F33E8
:1025F0003A1C0F321278043A1A707B685B687A686A
:1026000052685269391C0F310978C90003311F2003
:10261000041C8C40211CC9430A405A617B685B68DA
:102620007A6852685169FA1C10781F2210403A1CCF
:102630000F321278D2000332041C9440221C0A4349
:102640005A616AE03B1C0F331B78072B30D93B1CC7
:102650000F331B780B2B2BD83B1C0F333A1C0F323C
:102660001278083A1A707B685B687A6852689269D7
:10267000391C0F310978C90003311F20041C8C401C
:10268000211CC9430A409A617B685B687A6852687A
:102690009169FA1C10781F2210403A1C0F321278F0
:1026A000D2000332041C9440221C0A439A6134E095
:1026B0003B1C0F331B780B2B2FD93B1C0F331B7884
:1026C0000F2B2AD83B1C0F333A1C0F3212780C3ACE
:1026D0001A707B685B687A685268D269391C0F315E
:1026E0000978C90003311F20041C8C40211CC943F8
:1026F0000A40DA617B685B687A685268D169FA1CC3
:1027000010781F2210403A1C0F321278D200033288
:10271000041C9440221C0A43DA61BD4605B090BDFA
:1027200080B500AF00F09EF8FFF736FE00F09EF88F
:10273000FFF7BEFA00F002F8BD4680BD80B586B056
:1027400000AF3B1C00221A60043300221A600433DD
:1027500000221A60043300221A60043300221A6037
:10276000043300221A6004333B1C1A689023DB05F3
:10277000196C0F230B401A433B1C1A609023DB0596
:102780009022D205126C0F218A431A649023DB0534
:102790009022D205D26907218A4301210A43DA61D6
:1027A0009023DA059023D90584235B00C958274B71
:1027B0000B40C0218904194384235B00D15090232E
:1027C000DA059023D90586235B00C9581F4B0B40BF
:1027D0001F49194386235B00D1509023DB053A1C27
:1027E00011680F2211409022D205126C0F208243F3
:1027F0000A431A64174B174AD269B8218A43B02199
:102800000A43DA61144B144A526980210A435A611F
:10281000124B124A126E01218A431A660F4B0F4A5D
:102820001269B8210A431A610C4B0C4A126E02213C
:102830008A431A66094B094A1169094A0A40B021BC
:1028400009020A431A61BD4606B080BDC0FFFFF809
:1028500008000001000004400001044000020440A0
:10286000FF47FFFF80B500AFBD4680BD80B500AF1C
:102870000A4BC0225A62C046084B5A6A04231340CE
:10288000FAD1074B064A12681A6000F011F8034BA0
:10289000C3225A62FEF73CFCBD4680BD00000140E9
:1028A0000003014080B500AF0023181CBD4680BD69
:1028B00080B584B000AF0023FB600023BB60184BE1
:1028C0001A68FF231B0213401B0AFB600123BB6035
:1028D000134B1B687B607B68FF2293437B60104B2C
:1028E0007A681A600E4B0E4A12680E490A431A6043
:1028F000C0460B4B1A688023DB051340F9D1FA68F8
:10290000BB689A4208D0FA68BB689A4202D200F0CB
:1029100069F801E000F008F8BD4604B080BDC0468B
:10292000000301400000F03F80B584B000AF2A4BA7
:102930001A68FF231B0213401B0AFB600123BB60C4
:10294000BB689A00FB689A4224D2FB680322934337
:102950000433FB60FB689B08FB601F4B1B687B60BC
:10296000FB681B021B041A0C79681C4B0B401343B9
:102970007B60194B7A681A60174B174A126818491E
:102980000A431A60C046144B1A688023DB051340C3
:10299000F9D11CE0104B1B687B60BB681B021B0459
:1029A0001A0C79680D4B0B4013437B600A4B7A6815
:1029B0001A60094B084A126809490A431A60C0465E
:1029C000054B1A688023DB051340F9D100E0B7E717
:1029D000BD4604B080BDC04600030140FF00FFFFBC
:1029E0000000F03F80B584B000AF274B1A68FF238A
:1029F0001B0213401B0AFB600123BB60FB689A00AB
:102A0000BB689A421FD2FB689B00FB601E4B1B6891
:102A10007B60FB681B021B041A0C79681B4B0B4084
:102A200013437B60184B7A681A60174B164A12687A
:102A300017490A431A60C046134B1A688023DB0506
:102A40001340F9D11CE0104B1B687B60BB681B0274
:102A50001B041A0C79680D4B0B4013437B600A4B27
:102A60007A681A60084B084A126809490A431A60D2
:102A7000C046054B1A688023DB051340F9D100E0FE
:102A8000BCE7BD4604B080BD00030140FF00FFFF6E
:102A90000000F03F90B585B000AF021CBB1D1A804E
:102AA0003B1C0F3300221A703C1C0F34074ABB1D1D
:102AB000101C191C0022FFF79FFB031C23703B1CFA
:102AC0000F331B78181CBD4605B090BDA03B00100D
:102AD00090B589B000AF78600A1CBB1C1A803B1C03
:102AE0001F3300221A703B1C1C3300221A8037E06F
:102AF0003B1C1C331A883B1C1C331B881B0399B2DC
:102B00003B1C1C331B885B007868C3181B88802023
:102B100000021B181B119BB21B051B0D9BB20B4324
:102B20009BB299B23B1C0C335200D1523B1C1C335C
:102B30001A883B1C0C335200D35A3C1C1F34181CFF
:102B4000FFF7A8FF031C23703B1C1F331B78002BCF
:102B50000ED03B1C1C333A1C1C32128801321A80E6
:102B60003A1C1C32BB1C12881B889A42C0D300E05E
:102B7000C0463B1C1F331B78181CBD4609B090BDD6
:102B8000002934D00123002210B488422CD3012420
:102B90002407A14204D2814202D209011B01F8E7B5
:102BA000E400A14204D2814202D249005B00F8E76E
:102BB000884201D3401A1A434C08A04202D3001B9A
:102BC0005C0822438C08A04202D3001B9C082243CD
:102BD000CC08A04202D3001BDC082243002803D00B
:102BE0001B0901D00909E3E7101C10BC704700283D
:102BF00001D00020C04307B4024802A1401802904F
:102C000003BDC046190000000029F0D003B5FFF74E
:102C1000B9FF0EBC4243891A1847C0467047C046E8
:102C20008446081C6146FFE71FB500F0CBFB002877
:102C300001D40021C8421FBD10B500F053FB404233
:102C4000013010BD10B500F0BDFB002801DB0020F5
:102C500010BD012010BDC04610B500F0B3FB002828
:102C600001DD002010BD012010BDC04610B500F0F0
:102C700061FB002801DC002010BD012010BDC04612
:102C800010B500F057FB002801DA002010BD01202C
:102C900010BDC0469E2110B5C905041CFFF7F0FF0A
:102CA000002803D1201C00F0DFFE10BD9E22201C56
:102CB000D10500F0FFFC00F0D7FE80231C060019B0
:102CC000F3E7C046F8B5430242004F024C00C00F84
:102CD0009B09120E061C9C46240EC90FBF09884290
:102CE00057D0151B002D00DC7EE0002C41D1002FB9
:102CF00064D0013D002D00D0ABE0DB1B141C061C92
:102D0000590144D59A019509281C00F021FF053886
:102D10008540844200DD79E0001B1F242B1C411CF0
:102D2000221ACB4095401F1C2B1C5D1EAB413B4320
:102D3000012500240F201840042800D004338021EE
:102D4000CF0401221F401640002F05D0FF2D5AD07E
:102D5000B34C23402C1C0135EDB2DA08012D3BDDCC
:102D600053025A0AE4B2E4052243F607101C30432A
:102D7000F8BDFF2A2BD08021CC04274301231B2D33
:102D800049DD6746FB1A141C061C5901BAD4651CA0
:102D9000D0E7151B002D4FDD002C13D0FF2A5AD091
:102DA0008024E1040F4301231B2D00DCB0E06344C9
:102DB000141C590155D4651C061CBBE7551C141C7A
:102DC000061CB7E7002F7CD1551C141CB2E78027E6
:102DD00063467D00FF24ADE7002AC3D0002C28D035
:102DE0008020C1030A43BBE7002D47D1501CC3B26A
:102DF000012B00DC96E06446E51B680158D53D1BBD
:102E00000E1C141C80E7FF240022ACE7844B241A1C
:102E10002B40651C8EE73E1C2021EE404D1BAF4031
:102E20003B1C5F1EBB4133436746FB1A141C061C48
:102E3000ABE757027A0A96E7002D7FD1541CE1B226
:102E4000012953DDFF2C00D19BE0FB185B08951C8A
:102E500070E7FF2A92D1061C802063464500FF24BC
:102E600068E7671CFF2F3CD06D4A01261E401340C7
:102E70005B083343A51C061C3C1C5BE76842002A28
:102E800025D0FF2C70D08022D6041D1C3543AC46C3
:102E900001261B2809DC62462025C2402B1A604609
:102EA0009840061C701E86411643BB1B0E1C27E76C
:102EB000141C002D00D027E7002601250423002440
:102EC0004AE7013D002D08D1FB18141C71E7002BC7
:102ED00050D1651C3B1C0E1C2CE7FF2A00D062E77A
:102EE000B9E780235D00FF24042335E7002A7CD165
:102EF000002B00D1A1E0002F00D1AFE0FB18590159
:102F000000D4B0E0464E022533400124061C11E7F0
:102F10003C1C2023EC405D1BAF403B1C5F1EBB41B3
:102F2000234344E7002A12D16546002D41D1002FEA
:102F3000C2D03B1C0E1C01250024FBE66D42002A7A
:102F400023D1002B66D1651C3B1C061CF2E66246B1
:102F5000002A38D1002F07D1802200265500314B9E
:102F6000FF24F9E6FF2C93D13B1C80270E1C7D002B
:102F7000FF24DFE601380028F4D16646BB1B0E1C97
:102F8000BEE680277D000423E6E6FF2C5CD080228D
:102F9000D1040B439C4601231B2D08DC20216246F3
:102FA000EA4063464D1BAB40591E8B411343DB196E
:102FB000FFE6002F38D0EB1B5A014BD57B1B0E1CB4
:102FC00001250024B6E6002F00D100E78020D308B9
:102FD000C403234204D0FF08274201D13B1C0E1C2E
:102FE0008021DB004D00FF24A4E6002B20D0002F21
:102FF00000D1ECE68022DE08D503311C2E4203D03E
:10300000F908294200D0311C061C8020CB00450065
:10301000FF248FE6013D002D14D1FB18C9E6C04600
:10302000FFFFFFFBFCFFFF0363460125002481E651
:10303000802465003B1CFF247CE63B1C061C01250C
:10304000002477E6FF2CA6D13B1C8027061C7D00C0
:10305000FF246FE6002B00D12EE769E66346061CCD
:103060000125002466E6061C0125002462E6C04610
:10307000F0B55F4656464D464446F0B4450244001E
:1030800083B00E1C6D0A240EC70F002C07D1002D33
:1030900000D091E0042101228846924609E0FF2CED
:1030A00055D08023180400210543ED007F3C88465D
:1030B0008A46331C58007602D90F760A000E8B46DA
:1030C0004CD101229446002E00D081E05B467B402B
:1030D0006246414601930A430F2A50D9201A6901DA
:1030E00081467501A94200D3B3E0012253429944BD
:1030F0001B2400260127621E381C10404B0076005E
:10310000002900DAA9E09D4200D8A6E0013C002C8D
:1031100000DCABE000280CD0191C76005B00002915
:1031200001DB9D4201D85B1B3E43013C002C00DCCF
:103130009CE059007200002B01DB8D4201D8491B35
:103140003A43013C4B0056000029EADAEBE7002D38
:103150002DD10820022180468A46AAE7FF2820D0E8
:103160008022130400211E438C465B467B4062464E
:103170004146F6007F3801930A430F2AAED85649DC
:1031800092008A589746019BFF260025F0052843A8
:10319000DE07304303B03CBC90469946A246AB469E
:1031A000F0BD331C5A1E934102339C468EE70C221D
:1031B000032390469A467CE7281C00F0C9FC76223F
:1031C000441F5342A5401C1A00208046824670E7E7
:1031D000301C00F0BDFC7623411F8E405A42002176
:1031E000101A8C4672E700233C4DFF26CEE75F465F
:1031F000351C01976346022BC5D0032B63D0012BEE
:1032000043D049467F31002935DD0F272F40042F59
:1032100000D004352B0103D5314A49461540803191
:10322000FE29B0DCA801450ACEB2019BAEE700261C
:103230000025ABE78020C1030D4211D00E420FD113
:103240000E4373025D0AFF265B469FE701975346D4
:10325000D1E7491B1A2401264CE75B1B3E4355E787
:103260000D436A02550A3B1CFF268FE71D1C6B1E8F
:103270009D413543C5E77E2467424A46B91A1B295A
:1032800008DD019B0026002580E7019D00262B40DC
:1032900000257BE74E469E36281CB5402B1C5D1E44
:1032A000AB41C84003430F251D40042D00D004331B
:1032B0005A0103D5019B0126002567E79C01650A99
:1032C000019B002662E78027FC0325436E02750AF6
:1032D000019BFF265AE7C046C83B0010FFFF7F0056
:1032E000FFFFFFF74302420070B55C0AC60F130EE2
:1032F00048024A00450A120EC90FFF2B05D0FF2ACB
:1033000008D0012093420BD070BD0120002CFBD1CE
:10331000FF2AF6D10120002DF6D101209342F3D1EE
:10332000AC42F1D18E4203D0002BEDD1002CEBD179
:103330000020E9E7F0B5430242004F00C60F480203
:103340005C0A450A130EC90F3A0EFF2B26D0FF2A3E
:1033500029D0002B0CD1604260418446002A0AD05B
:10336000002816D18E4221D0002E14D1012014E065
:10337000002AF7D194466F426F416046002805D17C
:10338000002FEFD00120002E07D004E00020002FF6
:1033900003D10029EAD101214842F0BD002CD6D04A
:1033A00002225042F9E7002DD3D0F9E79342DBDC4B
:1033B00004DBAC42D8D80020AC42EED2002EEAD0DA
:1033C0000120EAE7F0B5430242004F00C60F480271
:1033D0005C0A450A130EC90F3A0EFF2B26D0FF2AAE
:1033E00028D0002B0FD0002A14D194466F426F4191
:1033F0006046002814D00020002F03D100290DD1F1
:1034000001214842F0BD604260418446002AEDD06F
:103410000028F3D18E4211D0002EF1D10120F1E726
:10342000002FF7D00120002EECD0E9E70220002C7D
:10343000E8D1D4E70220002DE4D1D2E79342EBDCBF
:1034400004DBAC42E8D80020AC42DBD2002ED7D05F
:103450000120D7E7F0B55F4656464D464446F0B4E6
:103460004502460083B00F1C6D0A360EC40F002EB5
:1034700006D1002D70D1042101228846924609E030
:10348000FF2E43D08023180400210543ED007F3E2A
:1034900088468A46381C43007F02C10F7F0A1B0EF4
:1034A0008B463AD10121002F62D1584660404246F6
:1034B00001900A430F2A3FD92C04F018260C3B0434
:1034C0001A0C311C51433F0C2D0C7E436A4381463C
:1034D000080C36182C1CB3187C439A4200D99AE089
:1034E00009041D04080C2E18B5011B0C691E8D4122
:1034F000B20EE7181543BC0125432B014BD5012023
:10350000284001216D088944054344E0002D1ED167
:103510000820022180468A46BCE7FF2B12D0802279
:10352000100407435846002160404246FF007F3B9D
:1035300001900A430F2ABFD890005B4A8446624438
:1035400010688746391C4A1E91410231ADE70C22B2
:10355000032390469A469DE7281C00F0F9FA76224C
:10356000461F5342B5401E1A00208046824691E70E
:10357000381C00F0EDFA7621431F4A429F4000219B
:10358000131A92E70194514602292CD0032900D145
:1035900080E0012948D04E467F36002E51DD0F24B1
:1035A0002C40042C00D004352A0103D53F494E4657
:1035B0000D408036FE2E3DDD019B01241C40FF2185
:1035C0000025C805E2072843104303B03CBC9046E1
:1035D0009946A246AB46F0BD0024354DFF21F0E7E9
:1035E00051460229D2D1019D01242C40FF21002502
:1035F000E7E75E463D1C0196C6E73D1CC4E7802612
:10360000F3031D420BD01F4209D11F437A02550A12
:103610005C46FF21D5E780225702E41960E71D438D
:103620006F027D0AFF21CCE7019B00251940CCB237
:103630000021C6E70198AD0101246D0AF1B20440F2
:10364000BFE77E2673424A469F1A1B2F05DD019D68
:1036500001242C4000210025B3E749469E312C1C53
:103660008D402E1CFC40751EAE4126430F2030407D
:10367000042800D00436700105D5019F01243C4088
:10368000012100259DE7019AB30101245D0A144040
:10369000002196E78022D00305436C020199650A58
:1036A00001240C40FF218CE7083C0010FFFFFFF7CE
:1036B000FFFF7F00F8B5430245004F024C00C20FE8
:1036C000980984462D0E200EC90FBF09FF2854D03B
:1036D000012671408A423BD02C1A002C00DC89E084
:1036E000002825D1002F4BD16E1C2C1C6346151CC5
:1036F0000F221A40042A00D004338027F904012243
:1037000019402A40002906D0FF2E00D181E0B14D9A
:10371000341C2B400136F6B2DD08012E62DD6B024F
:103720005D0AE4B2E4052543281CD2071043F8BD26
:10373000FF2D51D08021CB041F4301261B2C70DDAF
:1037400067462C1CBB1B151C580122D4661CCFE7F6
:103750002E1A002E76DD002832D0FF2D3CD080249A
:10376000E1040F4301231B2E00DCD1E063442C1C39
:1037700058017AD4661C151CBAE7002FAAD1A7E716
:10378000013C002C6DD163462C1CDB1B151C580121
:10379000DCD59A019609301C00F0DAF9053886402C
:1037A000844239DC001B1F231A1A331C311C441CB1
:1037B0009340E1405E1EB3410B430126002497E78E
:1037C000002F00D190E7013E002E03D164463B1943
:1037D0002C1CCDE7FF2DC5D1151C80226346560059
:1037E000FF2485E7002D9CD0002C28D08020C70323
:1037F0003D4394E7002C45D16B1CD8B2012800DC76
:1038000090E06446E61B730157D53E1B2C1C0D1C33
:10381000C1E7FF24002585E76E4B241A3340661C60
:1038200066E7381C2021E0400C1BA7403E1C771E99
:10383000BE41064367462C1CBB1B151C84E769026E
:103840004D0A6FE7002E79D16C1CE0B201284BDDE8
:10385000FF2C00D198E061467F18AE1C7B08151C38
:1038600046E7FF2D00D068E7B6E7671CFF2F36D08C
:1038700058480121194003405B08A61C0B433C1C1F
:10388000151C35E76642002D1ED0FF286FD080251D
:103890006246EB041A43944601251B2E09DC62465E
:1038A0002023F24064469E1BB440251C6C1EA5419B
:1038B00015437B1B041C0D1C69E7002E0CD1002254
:1038C00001260423002426E76446002C55D1461C1B
:1038D0003B1C041C0D1C0BE72C1C151C5BE78023F8
:1038E0005E00FF24042316E7002D00D08DE065461E
:1038F000002D00D1ADE0002F00D181E07B195C01EB
:1039000000D47EE0334F151C3B4002260124EFE635
:10391000381C2023F0409E1BB7403B1C5F1EBB4160
:10392000034323E7002D15D16546002D47D1002F15
:10393000C5D03B1C0D1C01260024D9E67642002D83
:1039400026D16546002D00D07DE0461C3B1C041CA2
:10395000151CCDE66546002D40D1002F07D18021F2
:1039600000224E001C4BFF24D5E6FF2894D1802076
:103970003B1C0D1C4600FF24BAE6013E002EF4D18C
:103980003B1B0D1C041C02E780256E000423C2E6CD
:10399000FF2852D080246146E30419438C4601235A
:1039A0001B2E09DC20216446F44065468E1BB54081
:1039B0002B1C591E8B412343DB19041CD8E6002F16
:1039C0001ED0EB1B58014BD57B1B01260D1C002480
:1039D0008EE6C046FFFFFFFBFCFFFF03002F00D178
:1039E000FAE68020EB08C403234237D0FF082742C1
:1039F00034D13B1C0D1C8022DB005600FF2477E6EF
:103A00006346151C0126002472E66446002C14D07F
:103A1000002F00D1E0E68023E608D803311C0642DF
:103A200003D0F908014200D0311C151C8022CB00C4
:103A30005600FF245CE6FF28B1D180203B1C151CFA
:103A40004600FF2454E6013E002EF4D17B19041CED
:103A50008EE63B1C151C0126002449E6151CCAE70E
:103A6000002B00D12BE7CCE743024200590A130E8A
:103A7000C20F00207E2B0DDD9D2B0CDC802000046E
:103A80000143952B0ADC9620C31AD9404842002AEC
:103A900000D1081C704703495018FBE7963B99403A
:103AA000F4E7C046FFFFFF7F10B5041E34D000F0DE
:103AB0004FF89E231B1A962B07DC083884406402BB
:103AC000610ADBB2D805084310BD992B0ADD021C40
:103AD0001B32211C91400A1C511E8A410521091AE2
:103AE000CC40144305281ADC184A0F2122400C4010
:103AF000042C00D00432510105D59F24231AFF2B3A
:103B000021D012480240591CCCB2D208012C09DD48
:103B10005002410ADBB2D5E700230021D2E7421F61
:103B20009440E1E7002A0BD0002B06D08021CC0383
:103B300022435202510ADBB2C4E75002410AC1E7F4
:103B4000DBB20021BEE7FF230021BBE7FFFFFFFB45
:103B50001C2101231B04984201D3000C10391B0ABD
:103B6000984201D3000A08391B09984201D3000981
:103B7000043902A2105C40187047C04604030202D8
:0C3B800001010101000000000000000035
:103B8C008CD4FF7F0100000098D4FF7F010000005F
:103B9C00C00106000000004800000000640900207D
:103BAC0003000000000000000101010301000000FF
:103BBC00740900200104000000010440DC300010F6
:103BCC00863100102E320010EE3100102E32001013
:103BDC00E63100102E320010EE310010863100104C
:103BEC0086310010E6310010EE3100104C3200101E
:103BFC004C3200104C32001034320010B83400102B
:103C0C00FA350010FA350010F2350010E0350010CE
:103C1C00E0350010D8350010F2350010E0350010FA
:103C2C00D8350010E0350010F23500108435001046
:0C3C3C008435001084350010FE350010A7
:103C50002C48874600000000000000000000000023
:103C60000000000000000000000000000000000054
:103C700025488746000000000000000023488746D2
:103C80002348874623488746234887462348874654
:103C90002348874623488746234887462348874644
:103CA000234887460000000022488746224887466E
:103CB0002248874622488746224887462248874628
:103CC0002248874622488746224887462248874618
:103CD0002248874622488746224887462248874608
:103CE00022488746224887462248874622488746F8
:103CF0002248874622488746000000000000000056
:103D000020488746C3100010C5100010C7100010CF
:103D1000C9100010CB100010CD100010CF100010F3
:103D2000D1100010D3100010D5100010D7100010C3
:103D3000D9100010F7100010F9100010FB1000103F
:103D4000FD100010FF10001001110010DB1000101A
:103D5000DD100010DF100010E1100010E310001063
:103D6000E5100010E7100010E9100010EB10001033
:103D7000ED100010EF100010F1100010F310001003
:083D8000F51000100311001002
:103D8800555500000001000040420F0000001010CF
:103D98000000000002000000010F000000020440C3
:103DA8000000044000000440000004400106000038
:0400000510001019BE
:00000001FF
